:1000000032C1000060C100005EC100005CC10000A0
:100010005AC1000058C1000056C1000054C1000080
:1000200052C1000050C100004EC100004CC1000090
:100030004AC1000048C1000046C1000044C10000A0
:1000400042C100003AC500003EC100003CC10000B2
:100050003AC1000038C1000036C10000E4C400000D
:1000600032C10000AAC400007FC400002CC10000FF
:100070002AC1000028C1000026C1000024C10000E0
:1000800022C1000020C100001EC100001CC10000F0
:100090001AC1000018C1000016C1000014C1000000
:1000A00012C1000010C100000EC100000CC1000010
:1000B0000AC1000008C1000006C1000004C1000020
:1000C00002C1000000C10000FEC00000FCC0000032
:1000D000FAC00000F8C00000F6C00000F4C0000044
:1000E000F2C00000B402B702A602AA02B002EE02F9
:1000F000BB02BF02C502C902CD02D302D702DB0296
:10010000EE02E102E502E9024E414E494E495459E0
:10011000494E46CDCCCC3D0AD7233C17B7D13877D2
:10012000CC2B329595E6241FB14F0A0000204100E8
:1001300000C84200401C4620BCBE4CCA1B0E5AAE32
:10014000C59D7400002100240027002A002D0030E6
:1001500000330001010000040107010A0100002230
:1001600000250028002B002E003100340002010081
:1001700000050108010B01000020002300260029D2
:10018000002C002F003200000100000301060109CD
:100190000105050505070508080808020202020A0C
:1001A0000A0808040404040101010101010101031A
:1001B00003030303030303040707070C0C0C0C0CD5
:1001C0000C0C0C0202020206060606060606060BC8
:1001D0000B0B0B0B0B0B0B0102102020080810203F
:1001E00040102040800201020108040201010204C3
:1001F0000810204080804020100804020180040282
:1002000001804020100804020108040201010204D8
:100210000810204080010204081020408000000ADD
:100220000B02090C0D0E080703040100000000007A
:1002300000000000000000000000000000000000BE
:10024000000000000000000000121110000000007B
:10025000000000000000000000000000000000009E
:1002600000000000DC0811241FBECFEFD1E2DEBF8A
:10027000CDBF00E00CBF24E0A6E3B3E001C01D92B7
:10028000A133B207E1F713E0A0E0B2E0EAE6FDE156
:1002900000E00BBF02C007900D92A633B107D9F75B
:1002A00011E0C3E3D1E000E006C021970109802FEF
:1002B000FE010E94860CC233D10780E00807A9F72F
:1002C00008D50C94B30E9CCECF92DF92EF92FF92A2
:1002D0000F931F93CF93DF936C017A018B01C0E0E2
:1002E000D0E0CE15DF0589F0D8016D918D01D601E2
:1002F000ED91FC910190F081E02DC6011995892BBB
:1003000011F47E0102C02196ECCFC701DF91CF919D
:100310001F910F91FF90EF90DF90CF900895089577
:1003200080E090E00895FC01538D448D252F30E04E
:10033000842F90E0821B930B541710F0CF960895F2
:1003400001970895FC01918D828D981761F0828D3F
:10035000DF01A80FB11D5D968C91928D9F5F9F73F9
:10036000928F90E008958FEF9FEF0895FC01918D9B
:10037000828D981731F0828DE80FF11D858D90E008
:1003800008958FEF9FEF0895FC01918D228D892FA5
:1003900090E0805C9F4F821B91098F73992708958D
:1003A0008EE893E0F1DF21E0892B09F420E0822F31
:1003B0000895FC01848DDF01A80FB11DA35ABF4F22
:1003C0002C91848D90E001968F739927848FA68954
:1003D000B7892C93A089B1898C9180648C93938D7B
:1003E000848D981306C00288F389E02D80818F7D6B
:1003F00080830895EF92FF920F931F93CF93DF9323
:10040000EC0181E0888F9B8D8C8D981305C0E88965
:10041000F989808185FD23C0F62E0B8D10E00F5FDA
:100420001F4F0F731127E02E8C8DE8120BC00FB6F3
:1004300007FCFACFE889F989808185FFF5CFCE01E5
:10044000B8DFF2CF8B8DFE01E80FF11DE35AFF4FAD
:10045000F0820B8FEA89FB898081806207C0EE8978
:10046000FF896083E889F98980818064808381E0E5
:1004700090E0DF91CF911F910F91FF90EF90089541
:10048000CF93DF93EC01888D8823C1F0EA89FB8943
:10049000808185FD05C0A889B9898C9186FD0EC033
:1004A0000FB607FCF5CF808185FFF2CFA889B98907
:1004B0008C9185FFEDCFCE017CDFE8CFDF91CF912E
:1004C000089580E090E0892B19F06ADF811125C042
:1004D00080E090E0892B41F080E090E0892B21F0D2
:1004E0000E94000081111CC080E090E0892B41F047
:1004F00080E090E0892B21F00E940000811113C060
:1005000080E090E0892BA1F080E090E0892B81F0E1
:100510000E94000081110AC008950E940000D8CFF7
:100520000E940000E1CF0E940000EACF0C9400007E
:10053000089590E0FC013197E231F10508F04EC0DA
:100540008827EE58FF4F8F4F0C94860C80918000C7
:100550008F7703C0809180008F7D80938000089505
:1005600080918000877FF9CF84B58F7702C084B5F2
:100570008F7D84BD08958091B0008F7703C08091F6
:10058000B0008F7D8093B0000895809190008F77A8
:1005900007C0809190008F7D03C080919000877F7D
:1005A0008093900008958091A0008F7707C080917C
:1005B000A0008F7D03C08091A000877F8093A00062
:1005C0000895809120018F7707C0809120018F7D51
:1005D00003C080912001877F809320010895CF93ED
:1005E000DF93282F30E0F901E35EFD4F8491F9019C
:1005F000E952FE4FD491F901EF56FE4FC491CC233E
:1006000089F0811196DFEC2FF0E0EE0FFF1FE95823
:10061000FE4FA591B491EC91ED2381E090E021F49F
:1006200080E002C080E090E0DF91CF9108951F93B9
:10063000CF93DF93282F30E0F901E35EFD4F8491E3
:10064000F901E952FE4FD491F901EF56FE4FC491E2
:10065000CC23C1F0162F81116CDFEC2FF0E0EE0FF0
:10066000FF1FE35AFE4FA591B4918FB7F894111173
:1006700005C09C91ED2FE095E92302C0EC91ED2B94
:10068000EC938FBFDF91CF911F910895CF93DF93AC
:1006900090E0FC01E952FE4F2491FC01EF56FE4F21
:1006A0008491882361F190E0880F991FFC01ED5B34
:1006B000FE4FC591D491FC01E35AFE4FA591B49130
:1006C000611109C09FB7F89488812095822388839F
:1006D000EC912E230BC0623061F49FB7F8943881FF
:1006E000822F809583238883EC912E2B2C939FBFA0
:1006F00006C08FB7F894E8812E2B28838FBFDF9137
:10070000CF9108953FB7F8948091490390914A039F
:10071000A0914B03B0914C0326B5A89B05C02F3F79
:1007200019F00196A11DB11D3FBFBA2FA92F982F17
:100730008827820F911DA11DB11DBC01CD0142E092
:10074000660F771F881F991F4A95D1F708958F92DA
:100750009F92AF92BF92CF92DF92EF92FF926B0186
:100760007C01D0DF4B015C01C114D104E104F10430
:10077000E9F0C8DFDC01CB0188199909AA09BB0996
:10078000883E9340A105B10578F321E0C21AD10853
:10079000E108F10888EE880E83E0981EA11CB11CC8
:1007A000C114D104E104F10421F7DECFFF90EF90F2
:1007B000DF90CF90BF90AF909F908F90089500975B
:1007C00061F0FC0101900020E9F73197AF01481B6F
:1007D000590BBC018EE893E077CD80E090E008955E
:1007E000CF93DF93ECDFEC0188E392E0E8DF8C0F3E
:1007F0009D1FDF91CF9108950E949F0E0F931F932D
:10080000CF93DF93EC0188819981009729F02A81A9
:100810003B812617370788F48B016F5F7F4F0E945B
:10082000BB0D009761F0998388831B830A832C8119
:100830003D81232B11F4FC01108281E001C080E096
:10084000DF91CF911F910F910895EF92FF920F9337
:100850001F93CF93DF931F921F92CDB7DEB78C010A
:1008600069831A82FC01E480F580FFEFEF1AFF0A2A
:10087000B701C4DF882381F0F801208131818481B0
:100880009581BE016F5F7F4F820F931F0E94AC0E58
:10089000F801F582E48281E00F900F90DF91CF9113
:1008A0001F910F91FF90EF9008958F929F92AF92BA
:1008B000BF92CF92DF92EF92FF920F931F93CF934D
:1008C000DF93CDB7DEB7A1970FB6F894DEBF0FBEAA
:1008D000CDBF89E084DE7C0100E010E08AE0882E54
:1008E000912CA12CB12C89E07ADE6C018E159F052C
:1008F00011F10F5F1F4F8BE392E061DF9801012E32
:10090000000C440B550B19A2CE0181967C01CA0143
:10091000B901A5019401D8D7605DF70162937F0109
:10092000211531054105510591F7CF0148DF88E3D5
:1009300092E045DF76010C32F1E01F07A4F280E07F
:1009400090E0A1960FB6F894DEBF0FBECDBFDF9149
:10095000CF911F910F91FF90EF90DF90CF90BF90BC
:10096000AF909F908F9008951F920F920FB60F92A5
:1009700011240BB60F922F933F934F935F936F9376
:100980007F938F939F93AF93BF93EF93FF938EE8E3
:1009900093E00FDDFF91EF91BF91AF919F918F9108
:1009A0007F916F915F914F913F912F910F900BBE6F
:1009B0000F900FBE0F901F9018951F920F920FB6B9
:1009C0000F9211240BB60F922F938F939F93EF9357
:1009D000FF93E0919E03F0919F038081E091A40337
:1009E000F091A50382FD12C090818091A7038F5FD3
:1009F0008F732091A803821751F0E091A703F0E0D4
:100A0000E257FC4F958F8093A70301C08081FF912F
:100A1000EF919F918F912F910F900BBE0F900FBE72
:100A20000F901F9018951F920F920FB60F921124DE
:100A30002F933F938F939F93AF93BF9380914503E1
:100A400090914603A0914703B0914803309144032D
:100A500023E0230F2D3720F40196A11DB11D05C001
:100A600026E8230F0296A11DB11D20934403809315
:100A7000450390934603A0934703B09348038091A6
:100A8000490390914A03A0914B03B0914C03019606
:100A9000A11DB11D8093490390934A03A0934B037A
:100AA000B0934C03BF91AF919F918F913F912F9144
:100AB0000F900FBE0F901F9018951F920F920FB6B8
:100AC0000F9211240BB60F922F933F934F935F9386
:100AD0006F937F938F939F93AF93BF93CF93EF9336
:100AE000FF93C0914E03CC2321F0809143038823D0
:100AF000D1F080914303882341F08091410391E03C
:100B0000980F909341038823A1F08091410388308E
:100B100010F010924103CC2309F4C7C04091430365
:100B20004423C9F0C2C08091000259DD8093420382
:100B3000E0CF60E08AE07BDD60E08CE078DD109261
:100B4000430380913F0390914003019690934003AB
:100B500080933F03DACF80914203882329F090915C
:100B60003E039F5F90933E0320913D0390913C0391
:100B7000821759F0903510F02DE101C02BE0920F53
:100B800090933C0380933D0303C09C5E90933C0391
:100B900090913C03903A08F488C020913A03309138
:100BA0003B033695279530933B0320933A0380917E
:100BB0003E03853028F0386030933B0320933A039E
:100BC000905A90933C0310923E0380914D038823EA
:100BD00009F45BC0909139039F5F909339039C3077
:100BE00008F463C020913A0330913B03822F8F7346
:100BF000E6E1F2E0DF0190E05D91851721F09F5F73
:100C00009031D1F790E050E1959FC001112496E01A
:100C1000369527959A95E1F730E05191251721F007
:100C20003F5F3031D1F701C0432F842B90916D038A
:100C300091110EC0809338039CEF980F9B3140F0C8
:100C400010924D03809137038F5F809337032DC03F
:100C5000E0916D0391E09E0F90936D03F0E0E15BF6
:100C6000FC4F808390916D0380913803981750F06A
:100C700010924D03809136038F5F8093360381E09D
:100C800080936E031092390310C080913A039091C3
:100C90003B0388339B4049F481E080934D031092DD
:100CA000390310926D0310926E03FF91EF91CF9173
:100CB000BF91AF919F918F917F916F915F914F9174
:100CC0003F912F910F900BBE0F900FBE0F901F9072
:100CD0001895CF93DF93CDB7DEB72E970FB6F89464
:100CE000DEBF0FBECDBF789484B5826084BD84B56D
:100CF000816084BD85B5826085BD85B5816085BD17
:100D000080916E00816080936E00109281008091CE
:100D10008100826080938100809181008160809356
:100D20008100809180008160809380008091B1007B
:100D300084608093B1008091B00081608093B000A6
:100D400080919100826080939100809191008160F8
:100D500080939100809190008160809390008091B9
:100D6000A10082608093A1008091A10081608093A6
:100D7000A1008091A00081608093A000809121015A
:100D80008260809321018091210181608093210103
:100D90008091200181608093200180917A0084609D
:100DA00080937A0080917A00826080937A008091AB
:100DB0007A00816080937A0080917A0080688093C5
:100DC0007A001092C100E0919E03F0919F0312E01F
:100DD0001083E0919A03F0919B031082E0919C03B1
:100DE000F0919D038FEC80831092A603E091A20303
:100DF000F091A30386E08083E091A003F091A1032A
:100E0000808180618083E091A003F091A1038081C3
:100E100088608083E091A003F091A10380818068C5
:100E20008083E091A003F091A10380818F7D808376
:100E300068EE73E080E090E08ADC8EE492E0D0DC43
:100E400061E084E023DC61E085E020DC61E086E0B5
:100E50001DDC61E08BE01ADC61E08CE017DC60E017
:100E600089E014DC109300028EE0E8E0F2E0DE019D
:100E7000119601900D928A95E1F77E0123E0E20E32
:100E8000F11C11E0F701619171917F0180E090E028
:100E90004DD39B01AC0160E074E284E79BE477D41E
:100EA0009B01AC0160E070E080E89FE370D49B019F
:100EB000AC016FE672E183E099E369D4D0D44B01D1
:100EC0005C01F2E08F1A9108A108B1082DEF82169B
:100ED0002FEF9206A104B10408F46AC11F5F173016
:100EE00089F6623071058105910540F16115710542
:100EF000E1E08E07910510F5112301F110928000B9
:100F000028E02093810020918100122B1093810012
:100F1000709389006093880080916F008260809355
:100F20006F0061E08CE0B2DB60E080910002AEDB3C
:100F300061E08AE0ABDB60E08AE079DB80914E0320
:100F4000811105C081E080934E0310924D0381E032
:100F500080936F0361E085E06ADB61E08BE067DB33
:100F600061E08AE064DB61E08CE061DB80916E032C
:100F7000882309F41BC180916D0383509091010275
:100F8000891710F4809301024091010250E060E55E
:100F900073E080E793E0D7D610926E0360916D0303
:100FA000EFE4F3E04FEF5FEF615000F12191822F0A
:100FB000842790E1899F900111242827822F90E0B7
:100FC000382F2227452F5527422B532B9C01A4E075
:100FD00035952795AA95E1F742275327B3E0880F67
:100FE000991FBA95E1F748275927DECF483B504F64
:100FF00009F0DCC080917003813311F460E001C01E
:1010000061E084E014DBE0918E03F0918F030190A6
:10101000F081E02D609170038EE893E0199583E7ED
:1010200092E0CDDB1A8219821C821B821E821D82F5
:1010300060E070E0CE010196E1DB29813A81811107
:101040000CC02115310511F0C901FDD41A82198295
:101050001E821D821C821B8206C01E821D826AE3C4
:1010600072E0C90179D660917103CE010196EDDB82
:1010700060917203CE010196E8DB60917303CE01AB
:101080000196E3DB60917403CE010196DEDB609193
:101090007503CE010196D9DB89819A81009721F0F1
:1010A000B8D06B017C0103C0C12CD12C76014D81DD
:1010B0005E8169817A818EE893E006D920E030E094
:1010C00040E451E4C701B601FBD3181624F48AE7C3
:1010D00092E086DB0CC084E892E082DB20E030E026
:1010E00040E451E4C701B601EBD318166CF58091CA
:1010F0006F03811158C081E992E072DB60E086E005
:1011000096DA60E08BE093DA62E370E080E090E0F2
:101110001EDB61E08BE08BDA61E08CE088DAC5DB16
:1011200060E08AE084DA64EF71E080E090E00FDB59
:1011300061E08AE07CDA61E085E079DA81E0809341
:101140006F0387EB92E02EC080916F03882359F1E3
:1011500080EE92E045DB60E085E069DA60E08BE0FC
:1011600066DA62E370E080E090E0F1DA61E08BE063
:101170005EDA60E08CE05BDA98DB61E08CE057DA05
:1011800060E08AE054DA64EF71E080E090E0DFDA5A
:1011900061E08AE04CDA61E086E049DA10926F03A0
:1011A00089E093E01DDB89819A814DD48AD9DECE16
:1011B000163009F0A1CEC2CEEEE8F3E0138212821F
:1011C00088EE93E0A0E0B0E084839583A683B783A4
:1011D0008AE292E09183808385EC90E09587848712
:1011E00084EC90E09787868780EC90E0918B808BF1
:1011F00081EC90E0938B828B82EC90E0958B848BDA
:1012000086EC90E0978B868B118E128E138E148E47
:1012100008956627772700C06F927F928F929F92E2
:10122000AF92BF92CF92DF92EF92FF920F931F93F4
:10123000CF93DF93EC017B016115710519F0DB01A0
:101240008D939C938E010F5F1F4F7880872D90E0C8
:1012500049D1892B11F0E801F5CFBDE27B1205C021
:101260000F5F1F4F7980C1E008C0EBE27E1204C01F
:101270008E010E5F1F4F7980C0E06801F1E0CF1A48
:10128000D10843E050E060E171E0C60133D1892B21
:10129000E9F4680122E0C20ED11C45E050E06BE0A9
:1012A00071E0C60127D1892B21F4680187E0C80EBF
:1012B000D11CE114F10419F0D701CD92DC92C111D7
:1012C000F9C060E070E080E89FE7FDC043E050E0D7
:1012D00068E071E0C6010ED1892B51F4E114F104EC
:1012E00009F4EDC00E5F1F4FF70111830083E7C0C3
:1012F000680160E070E0CB0100E010E0F601D0EDA5
:10130000D70DDA3050F52C2F2260622E2C2F28704A
:10131000C2FF05C0211127C00F5F1F4F24C0222329
:1013200011F001501109A5E0B0E09B01AC0116D20B
:101330004B015C01880C991CAA1CBB1CC501B401A3
:101340006D0F711D811D911D6839A9E97A078A0702
:10135000A9E19A0740F0C66005C0DE3F51F4C3FD25
:1013600044C0C8606C2EBFEFCB1ADB0A7080C62D5C
:10137000C5CF2D2F2F7D2531C1F540814D3211F480
:10138000C06106C04B3221F0319621E030E006C04A
:101390003296D60111964C9122E030E0A0EDA40FD8
:1013A000AA3018F0E21BF30B20C040E050E04038B8
:1013B000BCE05B075CF49A01220F331F220F331F3E
:1013C000420F531F440F551F4A0F511D3196DF0125
:1013D00011972C91A0EDA20FAA3048F3C4FF03C0CF
:1013E000519541955109040F151FC1FF07C0E11424
:1013F000F10421F03197D701ED93FC9397D0C3709E
:10140000C33019F06B017C0106C06B017C01F7FA57
:10141000F094F7F8F09420E030E0A901C701B6019C
:1014200081D0882309F443C017FF06C011950195A8
:101430001109C7E2D1E002C0CFE3D1E05E01B8E11B
:10144000AB1AB1084601BE2DAF2D90E2E92EF12C6A
:101450000E151F057CF0FE012591359145915491A3
:10146000B4018B2F9A2FC3D04B01B82FA92F0E197F
:101470001F09EECF2497F594E794CA15DB0541F7D1
:101480006401EB2EFA2E8E2D880F8F2D881F8F3F33
:1014900041F020E030E0A901C701B60143D081113D
:1014A00006C082E290E090932C0480932B04C70145
:1014B000B60109C060E070E080E89FEF04C060E022
:1014C00070E080EC9FE7DF91CF911F910F91FF902B
:1014D000EF90DF90CF90BF90AF909F908F907F90D4
:1014E0006F9008959111E6C0803219F089508550AF
:1014F000D0F70895FB01DC014150504088F08D91F8
:1015000081341CF08B350CF4805E659161341CF0E5
:101510006B350CF4605E861B611171F3990B0895B5
:10152000881BFCCF40D008F481E00895E89409C0FE
:1015300097FB3EF490958095709561957F4F8F4F06
:101540009F4F9923A9F0F92F96E9BB279395F6951C
:10155000879577956795B795F111F8CFFAF4BB0F9A
:1015600011F460FF1BC06F5F7F4F8F4F9F4F16C0FE
:10157000882311F096E911C0772321F09EE8872F88
:10158000762F05C0662371F096E8862F70E060E044
:101590002AF09A95660F771F881FDAF7880F9695BD
:1015A000879597F90895990F0008550FAA0BE0E861
:1015B000FEEF16161706E807F907C0F01216130615
:1015C000E407F50798F0621B730B840B950B39F455
:1015D0000A2661F0232B242B252B21F408950A26BB
:1015E00009F4A140A6958FEF811D811D08950BD0B0
:1015F0007BC06CD028F071D018F0952309F05DC045
:1016000062C01124A5C081D0A0F3959FD1F3950F9E
:1016100050E0551F629FF001729FBB27F00DB11D76
:10162000639FAA27F00DB11DAA1F649F6627B00D06
:10163000A11D661F829F2227B00DA11D621F739FEF
:10164000B00DA11D621F839FA00D611D221F749FFD
:101650003327A00D611D231F849F600D211D822F44
:10166000762F6A2F11249F5750408AF0E1F088238B
:101670004AF0EE0FFF1FBB1F661F771F881F915098
:101680005040A9F79E3F510570F017C061C05F3F01
:10169000ECF3983EDCF3869577956795B795F795CB
:1016A000E7959F5FC1F7FE2B880F911D9695879553
:1016B00097F9089599278827089597F99F6780E8F3
:1016C00070E060E008959FEF80EC089500240A9494
:1016D0001616170618060906089500240A9412160D
:1016E0001306140605060895092E0394000C11F440
:1016F000882352F0BB0F40F4BF2B11F460FF04C0ED
:101700006F5F7F4F8F4F9F4F089557FD9058440F45
:10171000551F59F05F3F71F04795880F97FB991F50
:1017200061F09F3F79F0879508951216130614060D
:10173000551FF2CF4695F1DF08C01616170618069A
:10174000991FF1CF86957105610508940895E89475
:10175000BB2766277727CB0197F9089509D0A59F66
:10176000900DB49F900DA49F800D911D112408959C
:10177000A29FB001B39FC001A39F700D811D1124D2
:10178000911DB29F700D811D1124911D08950CD0E3
:10179000ABCFA3DF40F09ADF30F021F45F3F19F0C8
:1017A0008CCF5111D5CF8FCFB0DF98F39923C9F3E8
:1017B0005523B1F3951B550BBB27AA276217730757
:1017C000840738F09F5F5F4F220F331F441FAA1F0B
:1017D000A9F333D00E2E3AF0E0E830D091505040CB
:1017E000E695001CCAF729D0FE2F27D0660F771F79
:1017F000881FBB1F261737074807AB07B0E809F05B
:10180000BB0B802DBF01FF2793585F4F2AF09E3FEF
:10181000510568F052CF9CCF5F3FECF3983EDCF36C
:10182000869577956795B795F7959F5FC9F7880F68
:10183000911D9695879597F90895E1E0660F771FBA
:10184000881FBB1F621773078407BA0720F0621B4B
:10185000730B840BBA0BEE1F88F7E095089504D044
:101860006894B11175CF089558DF88F09F5790F0B4
:10187000B92F9927B751A0F0D1F0660F771F881FB5
:10188000991F1AF0BA95C9F712C0B13081F05FDF25
:10189000B1E008955CCF672F782F8827B85F39F0C3
:1018A000B93FCCF3869577956795B395D9F73EF414
:1018B00090958095709561957F4F8F4F9F4F0895BC
:1018C00072DE08F48FEF0895A1E21A2EAA1BBB1B4B
:1018D000FD010DC0AA1FBB1FEE1FFF1FA217B307FC
:1018E000E407F50720F0A21BB30BE40BF50B661F12
:1018F000771F881F991F1A9469F7609570958095D6
:1019000090959B01AC01BD01CF010895EE0FFF1F23
:10191000881F8BBF0790F691E02D1994CF93DF932A
:101920008230910510F482E090E0E0912F04F09174
:10193000300420E030E0C0E0D0E0309711F1408189
:10194000518148175907C0F04817590761F482813F
:101950009381209719F09B838A832BC09093300446
:1019600080932F0426C02115310519F04217530723
:1019700018F49A01BE01DF01EF010280F381E02D2E
:10198000DCCF2115310509F1281B390B2430310535
:1019900090F412968D919C9113976115710521F029
:1019A000FB019383828304C09093300480932F04BF
:1019B000FD01329644C0FD01E20FF31F8193919324
:1019C000225031092D933C933AC020912D0430913F
:1019D0002E04232B41F42091040230910502309310
:1019E0002E0420932D042091020230910302211530
:1019F000310541F42DB73EB74091060250910702E0
:101A0000241B350BE0912D04F0912E04E217F3070F
:101A1000A0F42E1B3F0B2817390778F0AC014E5F5E
:101A20005F4F2417350748F04E0F5F1F50932E0469
:101A300040932D048193919302C0E0E0F0E0CF0148
:101A4000DF91CF9108950F931F93CF93DF9300976A
:101A500009F48CC0FC0132971382128200912F048A
:101A6000109130040115110581F420813181820F1C
:101A7000931F20912D0430912E042817390779F5F2
:101A8000F0932E04E0932D0471C0D80140E050E0A3
:101A9000AE17BF0750F412962D913C911397AD01EC
:101AA0002115310509F1D901F3CF9D01DA01338305
:101AB000228360817181860F971F8217930769F4D3
:101AC000EC0128813981260F371F2E5F3F4F31836C
:101AD00020838A819B8193838283452B29F4F09311
:101AE0003004E0932F0442C01396FC93EE931297B8
:101AF000ED01499159919E01240F351FE217F3071B
:101B000071F480819181840F951F029611969C93A8
:101B10008E938281938113969C938E931297E0E02B
:101B2000F0E0D80112968D919C911397009719F0CF
:101B3000F8018C01F6CF8D919C9198012E5F3F4F5B
:101B4000820F931F20912D0430912E0428173907FE
:101B500069F4309729F41092300410922F0402C0D7
:101B60001382128210932E0400932D04DF91CF91E3
:101B70001F910F9108956F927F928F929F92AF92D3
:101B8000BF92CF92DF92EF92FF920F931F93CF936A
:101B9000DF93EC01009781F4CB01DF91CF911F918E
:101BA0000F91FF90EF90DF90CF90BF90AF909F90FC
:101BB0008F907F906F90B2CEFC01E60FF71F9C01D3
:101BC00022503109E217F30708F4A8C0D9010D919A
:101BD0001C91119706171707A8F00530110508F496
:101BE0009BC0C80104978617970708F495C0025058
:101BF0001109061B170B019311936D937C93CF0171
:101C000022DF8AC05B01A01AB10A4C01800E911E2E
:101C1000A0912F04B091300440E050E0E12CF12C71
:101C2000109709F44AC0A815B905D1F56D907C90BC
:101C30001197630182E0C80ED11CCA14DB0480F145
:101C4000A3014A195B096A0182E0C80ED11C1296F1
:101C5000BC9012971396AC91B5E0CB16D10440F02E
:101C6000B282A38351834083D9016D937C930AC0D0
:101C70000E5F1F4FC301800F911FF9019183808375
:101C8000EB2DFA2FE114F10431F0D7011396FC93F8
:101C9000EE93129741C0F0933004E0932F043CC0C0
:101CA0008D919C9111974817590708F4AC017D015B
:101CB00012960D90BC91A02DB3CF80912D049091E0
:101CC0002E0488159905E1F446175707C8F480914A
:101CD000020290910302009741F48DB79EB74091A4
:101CE000060250910702841B950BE817F907B0F420
:101CF000F0932E04E0932D04F901718360830CC0EE
:101D0000CB010CDE7C01009749F0A801BE011BD07D
:101D1000CE0199DEC70104C0CE0102C080E090E090
:101D2000DF91CF911F910F91FF90EF90DF90CF90B7
:101D3000BF90AF909F908F907F906F90089581E0BB
:101D400090E0F89410C0FB01DC0102C001900D92FC
:101D500041505040D8F70895FB01DC0101900D92ED
:0A1D60000020E1F70895F894FFCF8A
:101D6A000B1E000031048000000001000800400042
:101D7A0000010004050D0D0E131516191A1C232552
:101D8A0026292A2C323400000000FA01640193014A
:101D9A004002C401A201B6010D0A004E756D6572BA
:101DAA006F2064652050756C736F733A2000496E1A
:101DBA00696369616C697A616E646F206120536539
:101DCA007269616C204DC3B364756C6F2052582ED2
:101DDA002E2E0020202D2D202000202D2D20537462
:101DEA00616C6C00202D2D204E4F5F5374616C6C1A
:101DFA0000202A2A2A496E696369616E646F206D20
:101E0A006F76696D656E746F2070617261205374AC
:101E1A00616C6C2A2A2A00202A2A2A4D6F76696D5B
:101E2A00656E746163616F207061726120537461C1
:101E3A006C6C20636F6E636C756964612A2A2A0070
:101E4A00202A2A2A496E696369616E646F206D6F60
:101E5A0076696D656E746F2070617261204E4F20D5
:101E6A005374616C6C2A2A2A00202A2A2A4D6F761A
:101E7A00696D656E746163616F2070617261204E75
:101E8A004F205374616C6C20636F6E636C75696468
:061E9A00612A2A2A000063
:00000001FF
