:100000000C9480000C94A8000C94A8000C94A800F8
:100010000C94A8000C94A8000C94A8000C94A800C0
:100020000C94A8000C94A8000C94A8000C94510403
:100030000C94A8000C94A8000C94A8000C94A800A0
:100040000C9407040C94A8000C94D5030C94AF03F3
:100050000C94A8000C94A8000C94A8000C94A80080
:100060000C94A8000C94A8004E414E494E49545996
:10007000494E46CDCCCC3D0AD7233C17B7D1387773
:10008000CC2B329595E6241FB14F0A000020410089
:1000900000C84200401C4620BCBE4CCA1B0E5AAED3
:1000A000C59D7400000000240027002A0000000005
:1000B00000250028002B0000000000230026002956
:1000C0000004040404040404040202020202020301
:1000D000030303030301020408102040800102040B
:1000E000081020010204081020000000080002018E
:1000F0000000030407000000000000000000E20709
:1001000011241FBECFEFD8E0DEBFCDBF23E0A6E3B2
:10011000B2E001C01D92A133B207E1F712E0A0E006
:10012000B1E0E8EDFBE102C005900D92A633B10706
:10013000D9F710E0C0E8D0E004C02197FE010E948A
:10014000D80BCF37D107C9F70E945C050C94EA0D94
:100150000C940000CF92DF92EF92FF920F931F93C7
:10016000CF93DF936C017A018B01C0E0D0E0CE1514
:10017000DF0589F0D8016D918D01D601ED91FC91DB
:100180000190F081E02DC6010995892B11F47E01C3
:1001900002C02196ECCFC701DF91CF911F910F9143
:1001A000FF90EF90DF90CF900895089580E090E069
:1001B0000895FC01538D448D252F30E0842F90E06D
:1001C000821B930B541710F0CF9608950197089552
:1001D000FC01918D828D981761F0828DDF01A80F4F
:1001E000B11D5D968C91928D9F5F9F73928F90E071
:1001F00008958FEF9FEF0895FC01918D828D9817E0
:1002000031F0828DE80FF11D858D90E008958FEF1C
:100210009FEF0895FC01918D228D892F90E0805CE5
:100220009F4F821B91098F73992708958EE892E062
:100230000E940A0121E0892B09F420E0822F089511
:10024000FC01848DDF01A80FB11DA35ABF4F2C9173
:10025000848D90E001968F739927848FA689B78942
:100260002C93A089B1898C9180648C93938D848D1B
:10027000981306C00288F389E02D80818F7D8083EA
:100280000895EF92FF920F931F93CF93DF93EC01AA
:1002900081E0888F9B8D8C8D981305C0E889F98942
:1002A000808185FD24C0F62E0B8D10E00F5F1F4F5F
:1002B0000F731127E02E8C8DE8120CC00FB607FCCF
:1002C000FACFE889F989808185FFF5CFCE010E94B8
:1002D0002001F1CF8B8DFE01E80FF11DE35AFF4F96
:1002E000F0820B8FEA89FB898081806207C0EE89EA
:1002F000FF896083E889F98980818064808381E057
:1003000090E0DF91CF911F910F91FF90EF900895B2
:10031000CF93DF93EC01888D8823C9F0EA89FB89AC
:10032000808185FD05C0A889B9898C9186FD0FC0A3
:100330000FB607FCF5CF808185FFF2CFA889B98978
:100340008C9185FFEDCFCE010E942001E7CFDF9198
:10035000CF91089580E090E0892B29F00E9416014A
:1003600081110C9400000895833081F028F48130CD
:1003700099F08230A1F008958730A9F08830B9F063
:100380008430D1F4809180008F7D03C08091800003
:100390008F7780938000089584B58F7702C084B5ED
:1003A0008F7D84BD08958091B0008F7703C08091C8
:1003B000B0008F7D8093B0000895CF93DF93282FF6
:1003C00030E0F901E751FF4F8491F901EB52FF4F03
:1003D000D491F901EF53FF4FC491CC2391F08111D7
:1003E0000E94B401EC2FF0E0EE0FFF1FE954FF4F25
:1003F000A591B491EC91ED2381E090E021F480E0AF
:1004000002C080E090E0DF91CF9108951F93CF93D9
:10041000DF93282F30E0F901E751FF4F8491F90174
:10042000EB52FF4FD491F901EF53FF4FC491CC230E
:10043000C9F0162F81110E94B401EC2FF0E0EE0FED
:10044000FF1FE355FF4FA591B4918FB7F894111199
:1004500005C09C91ED2FE095E92302C0EC91ED2BB6
:10046000EC938FBFDF91CF911F910895CF93DF93CE
:1004700090E0FC01EB52FF4F2491FC01EF53FF4F42
:100480008491882361F190E0880F991FFC01ED555C
:10049000FF4FC591D491FC01E355FF4FA591B49155
:1004A000611109C09FB7F8948881209582238883C1
:1004B000EC912E230BC0623061F49FB7F894388121
:1004C000822F809583238883EC912E2B2C939FBFC2
:1004D00006C08FB7F894E8812E2B28838FBFDF9159
:1004E000CF9108953FB7F8948091490290914A02C4
:1004F000A0914B02B0914C0226B5A89B05C02F3F9E
:1005000019F00196A11DB11D3FBFBA2FA92F982F39
:100510008827820F911DA11DB11DBC01CD0142E0B4
:10052000660F771F881F991F4A95D1F708958F92FC
:100530009F92AF92BF92CF92DF92EF92FF926B01A8
:100540007C010E9472024B015C01C114D104E104E0
:10055000F104F1F00E947202DC01CB0188199909C3
:10056000AA09BB09883E9340A105B10570F321E0BB
:10057000C21AD108E108F10888EE880E83E0981EBF
:10058000A11CB11CC114D104E104F10419F7DDCFA1
:10059000FF90EF90DF90CF90BF90AF909F908F90A3
:1005A0000895009769F0FC0101900020E9F7319768
:1005B000AF01481B590BBC018EE892E00C94AA00D5
:1005C00080E090E00895CF93DF930E94D102EC0188
:1005D00088E391E00E94D1028C0F9D1FDF91CF91A3
:1005E00008950E94D50D0F931F93CF93DF93EC01D5
:1005F00088819981009729F02A813B812617370746
:1006000088F48B016F5F7F4F0E940B0D009761F0A4
:10061000998388831B830A832C813D81232B11F4CA
:10062000FC01108281E001C080E0DF91CF911F9139
:100630000F910895EF92FF920F931F93CF93DF9343
:1006400000D0CDB7DEB78C0169831A82FC01E4804B
:10065000F580FFEFEF1AFF0AB7010E94F30288232B
:1006600081F0F8012081318184819581BE016F5F25
:100670007F4F820F931F0E94E30DF801F582E48201
:1006800081E00F900F90DF91CF911F910F91FF901C
:10069000EF9008958F929F92AF92BF92CF92DF9288
:1006A000EF92FF920F931F93CF93DF93CDB7DEB7F7
:1006B000A1970FB6F894DEBF0FBECDBF89E00E94B0
:1006C000DD017C0100E010E08AE0882E912CA12C55
:1006D000B12C89E00E94DD016C018E159F0531F17E
:1006E0000F5F1F4F8BE391E00E94D1029801012E12
:1006F000000C440B550B19A2CE0181967C01CA0156
:10070000B901A50194010E94B60B605DF7016293E7
:100710007F01211531054105510589F7CF010E945F
:10072000D10288E391E00E94D10276010C32F1E01F
:100730001F077CF280E090E0A1960FB6F894DEBF30
:100740000FBECDBFDF91CF911F910F91FF90EF9022
:10075000DF90CF90BF90AF909F908F9008951F92A1
:100760000F920FB60F9211242F933F934F935F93E5
:100770006F937F938F939F93AF93BF93EF93FF9369
:100780008EE892E00E942001FF91EF91BF91AF911E
:100790009F918F917F916F915F914F913F912F9199
:1007A0000F900FBE0F901F9018951F920F920FB6CB
:1007B0000F9211242F938F939F93EF93FF93E091C8
:1007C0009E02F0919F028081E091A402F091A50227
:1007D00082FD12C090818091A7028F5F8F7320915C
:1007E000A802821751F0E091A702F0E0E257FD4F16
:1007F000958F8093A70201C08081FF91EF919F9117
:100800008F912F910F900FBE0F901F9018951F92F0
:100810000F920FB60F9211242F933F938F939F93B4
:10082000AF93BF938091450290914602A0914702F9
:10083000B09148023091440223E0230F2D3720F479
:100840000196A11DB11D05C026E8230F0296A11D2A
:10085000B11D209344028093450290934602A093D9
:100860004702B09348028091490290914A02A091B8
:100870004B02B0914C020196A11DB11D809349021B
:1008800090934A02A0934B02B0934C02BF91AF9158
:100890009F918F913F912F910F900FBE0F901F90BE
:1008A00018951F920F920FB60F9211242F933F931A
:1008B0004F935F936F937F938F939F93AF93BF9368
:1008C000CF93EF93FF93C0914E02CC2321F0809100
:1008D00043028823D1F080914302882341F0809124
:1008E000410291E0980F909341028823A9F08091F2
:1008F0004102883010F010924102CC2309F4CAC0A2
:10090000409143024423E1F0C5C0809100010E9460
:10091000DD0180934202DFCF60E08AE00E940602A0
:1009200060E08CE00E9406021092430280913F0238
:100930009091400201969093400280933F02D7CF5E
:1009400080914202882329F090913E029F5F90930C
:100950003E0220913D0290913C02821759F0903561
:1009600010F02DE101C02BE0920F90933C02809398
:100970003D0203C09C5E90933C0290913C02903AF1
:1009800008F488C020913A0230913B0236952795B1
:1009900030933B0220933A0280913E02853028F04A
:1009A000386030933B0220933A02905A90933C0275
:1009B00010923E0280914D02882309F45BC0909111
:1009C00039029F5F909339029C3008F463C02091F4
:1009D0003A0230913B02822F8F73E6E1F1E0DF01B2
:1009E00090E05D91851721F09F5F9031D1F790E005
:1009F00050E1959FC001112496E0369527959A9570
:100A0000E1F730E05191251721F03F5F3031D1F708
:100A100001C0432F842B90916D0291110EC08093E1
:100A200038029CEF980F9B3140F010924D0280915C
:100A300037028F5F809337022DC0E0916D0291E005
:100A40009E0F90936D02F0E0E15BFD4F80839091EB
:100A50006D0280913802981750F010924D028091EB
:100A600036028F5F8093360281E080936E0210928F
:100A7000390210C080913A0290913B0288339B402A
:100A800049F481E080934D021092390210926D0278
:100A900010926E02FF91EF91CF91BF91AF919F9114
:100AA0008F917F916F915F914F913F912F910F9017
:100AB0000FBE0F901F901895CF93DF93CDB7DEB781
:100AC0002E970FB6F894DEBF0FBECDBF789484B5D5
:100AD000826084BD84B5816084BD85B5826085BD3A
:100AE00085B5816085BD80916E00816080936E00C8
:100AF00010928100809181008260809381008091BA
:100B0000810081608093810080918000816080936A
:100B100080008091B10084608093B1008091B0002A
:100B200081608093B00080917A00846080937A0025
:100B300080917A00826080937A0080917A0081604F
:100B400080937A0080917A00806880937A00109276
:100B5000C100E0919E02F0919F0212E01083E091AB
:100B60009A02F0919B021082E0919C02F0919D020A
:100B70008FEC80831092A602E091A202F091A30272
:100B800086E08083E091A002F091A10280818061E3
:100B90008083E091A002F091A1028081886080832F
:100BA000E091A002F091A102808180688083E091B1
:100BB000A002F091A10280818F7D808368EE73E0B6
:100BC00080E090E00E9497028EE491E00E94E302B0
:100BD00061E084E00E94360261E085E00E94360216
:100BE00061E086E00E94360261E08BE00E943602FE
:100BF00061E08CE00E94360260E089E00E943602EB
:100C0000109300018EE0E8E0F1E0DE011196019022
:100C10000D928A95E1F77E0123E0E20EF11C11E0CE
:100C2000F701619171917F0180E090E00E94960947
:100C30009B01AC0160E074E284E79BE40E94090B35
:100C40009B01AC0160E070E080E89FE30E94090B2B
:100C50009B01AC016FE672E183E099E30E94090B0E
:100C60000E947B0B4B015C01F2E08F1A9108A108F6
:100C7000B1082DEF82162FEF9206A104B10408F4FB
:100C80009DC11F5F173061F66230710581059105C6
:100C900060F161157105E1E08E07910530F51123D2
:100CA00021F11092800028E02093810020918100A2
:100CB000122B1093810070938900609388008091BB
:100CC0006F00826080936F0061E08CE00E943602CA
:100CD00060E0809100010E94360261E08AE00E949B
:100CE000360260E08AE00E94060280914E02811185
:100CF00005C081E080934E0210924D0281E0809306
:100D00006F0261E085E00E94060261E08BE00E94D4
:100D1000060261E08AE00E94060261E08CE00E9427
:100D2000060280916E02882309F445C180916D020C
:100D3000835090910101891710F480930101409133
:100D4000010150E060E572E080E792E00E94DA0D78
:100D500010926E0260916D02EFE4F2E04FEF5FEFF0
:100D6000615000F12191822F842790E1899F9001A9
:100D700011242827822F90E0382F2227452F55272E
:100D8000422B532B9C01A4E035952795AA95E1F7BA
:100D900042275327B3E0880F991FBA95E1F74827F8
:100DA0005927DECF483B504F09F005C180917002B2
:100DB000813311F460E001C061E084E00E9406022A
:100DC000E0918E02F0918F020190F081E02D609110
:100DD00070028EE892E0099583E791E00E94D102CB
:100DE0001A8219821C821B821E821D8260E070E0C2
:100DF000CE0101960E94F30229813A8181110DC032
:100E00002115310519F0C9010E94730C1A8219824B
:100E10001E821D821C821B8207C01E821D826AE305
:100E200071E0C9010E94E30D60917102CE0101964B
:100E30000E941A0360917202CE0101960E941A0369
:100E400060917302CE0101960E941A0360917402B0
:100E5000CE0101960E941A0360917502CE0101969F
:100E60000E941A0389819A81009729F00E940F0835
:100E70006B017C0103C0C12CD12C76014D815E81B8
:100E800069817A818EE892E00E94AA0020E030E039
:100E900040E451E4C701B6010E94B10B18162CF4CE
:100EA0008AE791E00E94E3020EC084E891E00E948C
:100EB000E30220E030E040E451E4C701B6010E94C3
:100EC000B10B1816C4F580916F02811170C081E9D1
:100ED00091E00E94E30260E086E00E94060260E08A
:100EE0008BE00E94060262E370E080E090E00E94E6
:100EF000970261E08BE00E94060261E08CE00E94B4
:100F000006020E944A0360E08AE00E94060264EF43
:100F100071E080E090E00E94970261E08AE00E9428
:100F2000060261E085E00E94060281E080936F0284
:100F300087EB91E03AC080916F028823C1F180EE87
:100F400091E00E94E30260E085E00E94060260E01A
:100F50008BE00E94060262E370E080E090E00E9475
:100F6000970261E08BE00E94060260E08CE00E9444
:100F700006020E944A0361E08CE00E94060260E0E3
:100F80008AE00E94060264EF71E080E090E00E9437
:100F9000970261E08AE00E94060261E086E00E941A
:100FA000060210926F0289E092E00E94E3028981BA
:100FB0009A810E94730C0E94AA01B3CE163009F0E8
:100FC0006ECE93CEEEE8F2E01382128288EE93E0CA
:100FD000A0E0B0E084839583A683B7838AE291E0A2
:100FE0009183808385EC90E09587848784EC90E002
:100FF0009787868780EC90E0918B808B81EC90E0E6
:10100000938B828B82EC90E0958B848B86EC90E0C6
:10101000978B868B118E128E138E148E08956627F1
:1010200077270C941308A0E0B0E0E9E1F8E00C9415
:10103000C70AEC017B016115710519F0DB018D9385
:101040009C938E010F5F1F4F7880872D90E00E9448
:101050007009892B11F0E801F4CFBDE27B1205C0C5
:101060000F5F1F4F7980C1E008C0EBE27E1204C021
:101070008E010E5F1F4F7980C0E06801F1E0CF1A4A
:10108000D10843E050E060E770E0C6010E947909B2
:10109000892BF1F4680122E0C20ED11C45E050E03A
:1010A0006BE670E0C6010E947909892B21F4680182
:1010B00087E0C80ED11CE114F10419F0D701CD92DC
:1010C000DC92C111FFC060E070E080E89FE703C1DF
:1010D00043E050E068E670E0C6010E947909892B80
:1010E00051F4E114F10409F4F2C00E5F1F4FF7014F
:1010F00011830083ECC0680160E070E0CB0100E088
:1011000010E0F601D0EDD70DDA3058F52C2F226023
:10111000622E2C2F2870C2FF05C0211128C00F5F3E
:101120001F4F25C0222311F001501109A5E0B0E0A6
:101130009B01AC010E94B80A4B015C01880C991C10
:10114000AA1CBB1CC501B4016D0F711D811D911D31
:101150006839A9E97A078A07A9E19A0740F0C660C9
:1011600005C0DE3F51F4C3FD44C0C8606C2EBFEF24
:10117000CB1ADB0A7080C62DC4CF2D2F2F7D2531D1
:10118000C1F540814D3211F4C06106C04B3221F0EF
:10119000319621E030E006C03296D60111964C918E
:1011A00022E030E0A0EDA40FAA3018F0E21BF30B10
:1011B00020C040E050E04038BCE05B075CF49A019E
:1011C000220F331F220F331F420F531F440F551F8F
:1011D0004A0F511D3196DF0111972C91A0EDA20FFE
:1011E000AA3048F3C4FF03C0519541955109040F3B
:1011F000151FC1FF07C0E114F10421F03197D70199
:10120000ED93FC930E949609C370C33019F06B01F3
:101210007C0106C06B017C01F7FAF094F7F8F094BA
:1012200020E030E0A901C701B6010E94910988239E
:1012300009F445C017FF06C0119501951109C7E8CB
:10124000D0E002C0CFE9D0E05E01B8E1AB1AB1084E
:101250004601BE2DAF2D90E2E92EF12C0E151F0593
:1012600084F0FE012591359145915491B4018B2F65
:101270009A2F0E94F7094B01B82FA92F0E191F09A9
:10128000EDCF2497F594E794CA15DB0539F764018F
:10129000EB2EFA2E8E2D880F8F2D881F8F3F49F051
:1012A00020E030E0A901C701B6010E949109811137
:1012B00006C082E290E090932C0380932B03C70139
:1012C000B60109C060E070E080E89FEF04C060E014
:1012D00070E080EC9FE7CDB7DEB7EEE00C94E30A58
:1012E00091110C94640A803219F089508550C8F726
:1012F0000895FB01DC014150504088F08D9181340C
:101300001CF08B350CF4805E659161341CF06B35FC
:101310000CF4605E861B611171F3990B0895881BB4
:10132000FCCF0E94D30908F481E00895E89409C035
:1013300097FB3EF490958095709561957F4F8F4F08
:101340009F4F9923A9F0F92F96E9BB279395F6951E
:10135000879577956795B795F111F8CFFAF4BB0F9C
:1013600011F460FF1BC06F5F7F4F8F4F9F4F16C000
:10137000882311F096E911C0772321F09EE8872F8A
:10138000762F05C0662371F096E8862F70E060E046
:101390002AF09A95660F771F881FDAF7880F9695BF
:1013A000879597F90895990F0008550FAA0BE0E863
:1013B000FEEF16161706E807F907C0F01216130617
:1013C000E407F50798F0621B730B840B950B39F457
:1013D0000A2661F0232B242B252B21F408950A26BD
:1013E00009F4A140A6958FEF811D811D08950E94EB
:1013F0000A0A0C947E0A0E94700A38F00E94770A4A
:1014000020F0952311F00C94670A0C946D0A1124B6
:101410000C94B20A0E948F0A70F3959FC1F3950F46
:1014200050E0551F629FF001729FBB27F00DB11D68
:10143000639FAA27F00DB11DAA1F649F6627B00DF8
:10144000A11D661F829F2227B00DA11D621F739FE1
:10145000B00DA11D621F839FA00D611D221F749FEF
:101460003327A00D611D231F849F600D211D822F36
:10147000762F6A2F11249F5750409AF0F1F088235D
:101480004AF0EE0FFF1FBB1F661F771F881F91508A
:101490005040A9F79E3F510580F00C94670A0C94C8
:1014A000B20A5F3FE4F3983ED4F38695779567954B
:1014B000B795F795E7959F5FC1F7FE2B880F911DB4
:1014C0009695879597F9089599278827089597F90C
:1014D0009F6780E870E060E008959FEF80EC0895DA
:1014E00000240A9416161706180609060895002403
:1014F0000A9412161306140605060895092E03947D
:10150000000C11F4882352F0BB0F40F4BF2B11F4F0
:1015100060FF04C06F5F7F4F8F4F9F4F089557FD4F
:101520009058440F551F59F05F3F71F04795880F51
:1015300097FB991F61F09F3F79F0879508951216E8
:1015400013061406551FF2CF4695F1DF08C0161694
:1015500017061806991FF1CF869571056105089445
:101560000895E894BB2766277727CB0197F908955C
:101570000E94FA0AA59F900DB49F900DA49F800D24
:10158000911D112408952F923F924F925F926F9276
:101590007F928F929F92AF92BF92CF92DF92EF9203
:1015A000FF920F931F93CF93DF93CDB7DEB7CA1B84
:1015B000DB0B0FB6F894DEBF0FBECDBF09942A88AF
:1015C000398848885F846E847D848C849B84AA8457
:1015D000B984C884DF80EE80FD800C811B81AA81E4
:1015E000B981CE0FD11D0FB6F894DEBF0FBECDBFAF
:1015F000ED010895A29FB001B39FC001A39F700D9C
:10160000811D1124911DB29F700D811D1124911D0A
:1016100008950E941D0B0C947E0A0E94770A58F0D0
:101620000E94700A40F029F45F3F29F00C94670A89
:1016300051110C94B20A0C946D0A0E948F0A68F33F
:101640009923B1F3552391F3951B550BBB27AA277B
:1016500062177307840738F09F5F5F4F220F331FB5
:10166000441FAA1FA9F335D00E2E3AF0E0E832D07D
:1016700091505040E695001CCAF72BD0FE2F29D080
:10168000660F771F881FBB1F261737074807AB0752
:10169000B0E809F0BB0B802DBF01FF2793585F4FC7
:1016A0003AF09E3F510578F00C94670A0C94B20A08
:1016B0005F3FE4F3983ED4F3869577956795B795A9
:1016C000F7959F5FC9F7880F911D9695879597F9B4
:1016D0000895E1E0660F771F881FBB1F621773072D
:1016E0008407BA0720F0621B730B840BBA0BEE1F42
:1016F00088F7E09508950E94820B6894B1110C94CC
:10170000B20A08950E94970A88F09F5798F0B92F5F
:101710009927B751B0F0E1F0660F771F881F991F26
:101720001AF0BA95C9F714C0B13091F00E94B10A0D
:10173000B1E008950C94B10A672F782F8827B85F1D
:1017400039F0B93FCCF3869577956795B395D9F77E
:101750003EF490958095709561957F4F8F4F9F4F88
:1017600008950E94D30908F48FEF0895A1E21A2E7C
:10177000AA1BBB1BFD010DC0AA1FBB1FEE1FFF1F35
:10178000A217B307E407F50720F0A21BB30BE40B85
:10179000F50B661F771F881F991F1A9469F76095CC
:1017A0007095809590959B01AC01BD01CF01089586
:1017B000EE0FFF1F0590F491E02D0994CF93DF9376
:1017C0008230910510F482E090E0E0912F03F091D7
:1017D000300320E030E0C0E0D0E0309711F14081EC
:1017E000518148175907C0F04817590761F48281A1
:1017F0009381209719F09B838A832BC090933003A9
:1018000080932F0326C02115310519F04217530785
:1018100018F49A01BE01DF01EF010280F381E02D8F
:10182000DCCF2115310509F1281B390B2430310596
:1018300090F412968D919C9113976115710521F08A
:10184000FB019383828304C09093300380932F0322
:10185000FD01329644C0FD01E20FF31F8193919385
:10186000225031092D933C933AC020912D033091A1
:101870002E03232B41F42091040130910501309374
:101880002E0320932D032091020130910301211595
:10189000310541F42DB73EB7409106015091070143
:1018A000241B350BE0912D03F0912E03E217F30773
:1018B000A0F42E1B3F0B2817390778F0AC014E5FC0
:1018C0005F4F2417350748F04E0F5F1F50932E03CC
:1018D00040932D038193919302C0E0E0F0E0CF01AB
:1018E000DF91CF9108950F931F93CF93DF930097CC
:1018F00009F48CC0FC0132971382128200912F03ED
:10190000109130030115110581F420813181820F7E
:10191000931F20912D0330912E032817390779F555
:10192000F0932E03E0932D0371C0D80140E050E006
:10193000AE17BF0750F412962D913C911397AD014D
:101940002115310509F1D901F3CF9D01DA01338366
:10195000228360817181860F971F8217930769F434
:10196000EC0128813981260F371F2E5F3F4F3183CD
:1019700020838A819B8193838283452B29F4F09372
:101980003003E0932F0342C01396FC93EE9312971B
:10199000ED01499159919E01240F351FE217F3077C
:1019A00071F480819181840F951F029611969C930A
:1019B0008E938281938113969C938E931297E0E08D
:1019C000F0E0D80112968D919C911397009719F031
:1019D000F8018C01F6CF8D919C9198012E5F3F4FBD
:1019E000820F931F20912D0330912E032817390762
:1019F00069F4309729F41092300310922F0302C03B
:101A00001382128210932E0300932D03DF91CF9146
:101A10001F910F910895A0E0B0E0E1E1FDE00C948A
:101A2000C70AEC01009721F4CB010E94DE0BB8C07D
:101A3000FC01E60FF71F9C0122503109E217F30762
:101A400008F4ACC0D9010D911C9111970617170726
:101A5000B0F00530110508F49FC0C801049786173F
:101A6000970708F499C002501109061B170B019340
:101A700011936D937C93CF010E94730C8DC05B0119
:101A8000A01AB10A4C01800E911EA0912F03B091B3
:101A9000300340E050E0E12CF12C109709F44AC0EB
:101AA000A815B905D1F56D907C901197630182E07E
:101AB000C80ED11CCA14DB0480F1A3014A195B09CA
:101AC0006A0182E0C80ED11C1296BC901297139640
:101AD000AC91B5E0CB16D10440F0B282A383518320
:101AE0004083D9016D937C930AC00E5F1F4FC301E1
:101AF000800F911FF90191838083EB2DFA2FE11460
:101B0000F10431F0D7011396FC93EE93129744C081
:101B1000F0933003E0932F033FC08D919C91119778
:101B20004817590708F4AC017D0112960D90BC913D
:101B3000A02DB3CF80912D0390912E038815990588
:101B4000E1F446175707C8F4809102019091030110
:101B5000009741F48DB79EB740910601509107015F
:101B6000841B950BE817F907C8F4F0932E03E09354
:101B70002D03F901718360830FC0CB010E94DE0B3E
:101B80007C01009759F0A801BE010E94DA0DCE0138
:101B90000E94730CC70104C0CE0102C080E090E037
:101BA000CDB7DEB7EEE00C94E30A81E090E0F89464
:101BB0000C94EA0DFB01DC0102C001900D92415032
:101BC0005040D8F70895FB01DC0101900D920020F0
:081BD000E1F70895F894FFCF3E
:101BD8000B1E0000310380000000010008004000D7
:101BE80000010004050D0D0E131516191A1C2325E6
:101BF80026292A2C3234000000004101AA00D9000D
:101C080088010A01E800FC000D0A004E756D657236
:101C18006F2064652050756C736F733A2000496EAD
:101C2800696369616C697A616E646F2061205365CC
:101C38007269616C204DC3B364756C6F2052582E65
:101C48002E2E0020202D2D202000202D2D205374F5
:101C5800616C6C00202D2D204E4F5F5374616C6CAD
:101C680000202A2A2A496E696369616E646F206DB3
:101C78006F76696D656E746F207061726120537440
:101C8800616C6C2A2A2A00202A2A2A4D6F76696DEF
:101C9800656E746163616F20706172612053746155
:101CA8006C6C20636F6E636C756964612A2A2A0004
:101CB800202A2A2A496E696369616E646F206D6FF4
:101CC80076696D656E746F2070617261204E4F2069
:101CD8005374616C6C2A2A2A00202A2A2A4D6F76AE
:101CE800696D656E746163616F2070617261204E09
:101CF8004F205374616C6C20636F6E636C756964FC
:061D0800612A2A2A0000F6
:00000001FF
