:100000000C9462000C948A000C948A000C948A0070
:100010000C948A000C948A000C948A000C948A0038
:100020000C948A000C948A000C948A000C943F0370
:100030000C948A000C948A000C948A000C948A0018
:100040000C94F5020C948A000C94C3020C949D024B
:100050000C948A000C948A000C948A000C948A00F8
:100060000C948A000C948A000000000024002700F1
:100070002A0000000000250028002B0000000000DE
:1000800023002600290004040404040404040202DA
:100090000202020203030303030301020408102007
:1000A0004080010204081020010204081020000012
:1000B0000008000201000003040700000000000027
:1000C0000000CB0511241FBECFEFD8E0DEBFCDBFAF
:1000D00011E0A0E0B1E0E6E7FEE002C005900D927D
:1000E000A239B107D9F722E0A2E9B1E001C01D921F
:1000F000A735B207E1F710E0C2E6D0E004C02197CF
:10010000FE010E942E07C136D107C9F70E94B00335
:100110000C9439070C940000CF92DF92EF92FF927B
:100120000F931F93CF93DF936C017A018B01C0E093
:10013000D0E0CE15DF0589F0D8016D918D01D60193
:10014000ED91FC910190F081E02DC6010995892B7C
:1001500011F47E0102C02196ECCFC701DF91CF914F
:100160001F910F91FF90EF90DF90CF900895089529
:1001700080E090E00895FC01538D448D252F30E000
:10018000842F90E0821B930B541710F0CF960895A4
:1001900001970895FC01918D828D981761F0828DF1
:1001A000DF01A80FB11D5D968C91928D9F5F9F73AB
:1001B000928F90E008958FEF9FEF0895FC01918D4D
:1001C000828D981731F0828DE80FF11D858D90E0BA
:1001D00008958FEF9FEF0895FC01918D228D892F57
:1001E00090E0805C9F4F821B91098F73992708953F
:1001F0008AEB91E00E94EC0021E0892B09F420E0D9
:10020000822F0895FC01848DDF01A80FB11DA35A30
:10021000BF4F2C91848D90E001968F739927848F26
:10022000A689B7892C93A089B1898C9180648C931D
:10023000938D848D981306C00288F389E02D808108
:100240008F7D80830895EF92FF920F931F93CF933A
:10025000DF93EC0181E0888F9B8D8C8D981305C016
:10026000E889F989808185FD24C0F62E0B8D10E088
:100270000F5F1F4F0F731127E02E8C8DE8120CC0FB
:100280000FB607FCFACFE889F989808185FFF5CFA1
:10029000CE010E940201F1CF8B8DFE01E80FF11D0E
:1002A000E35AFF4FF0820B8FEA89FB8980818062DD
:1002B00007C0EE89FF896083E889F98980818064BD
:1002C000808381E090E0DF91CF911F910F91FF90AB
:1002D000EF900895CF93DF93EC01888D8823C9F0C8
:1002E000EA89FB89808185FD05C0A889B9898C913F
:1002F00086FD0FC00FB607FCF5CF808185FFF2CFDA
:10030000A889B9898C9185FFEDCFCE010E940201A9
:10031000E7CFDF91CF91089580E090E0892B29F01D
:100320000E94F80081110C9400000895833081F040
:1003300028F4813099F08230A1F008958730A9F037
:100340008830B9F08430D1F4809180008F7D03C073
:10035000809180008F7780938000089584B58F7797
:1003600002C084B58F7D84BD08958091B0008F77E1
:1003700003C08091B0008F7D8093B0000895CF932B
:10038000DF93282F30E0F901E255FF4F8491F90106
:10039000E656FF4FD491F901EA57FF4FC491CC23A1
:1003A00091F081110E949601EC2FF0E0EE0FFF1FFB
:1003B000E458FF4FA591B491EC91ED2381E090E0DA
:1003C00021F480E002C080E090E0DF91CF910895B9
:1003D0001F93CF93DF93282F30E0F901E255FF4FB1
:1003E0008491F901E656FF4FD491F901EA57FF4F86
:1003F000C491CC23C9F0162F81110E949601EC2FD5
:10040000F0E0EE0FFF1FEE58FF4FA591B4918FB7AC
:10041000F894111105C09C91ED2FE095E92302C0DD
:10042000EC91ED2BEC938FBFDF91CF911F9108954D
:10043000CF93DF9390E0FC01E656FF4F2491FC013F
:10044000EA57FF4F8491882361F190E0880F991F4C
:10045000FC01E859FF4FC591D491FC01EE58FF4FC4
:10046000A591B491611109C09FB7F8948881209536
:1004700082238883EC912E230BC0623061F49FB7F6
:10048000F8943881822F809583238883EC912E2BDA
:100490002C939FBF06C08FB7F894E8812E2B28833A
:1004A0008FBFDF91CF9108953FB7F89480919B0162
:1004B00090919C01A0919D01B0919E0126B5A89BB1
:1004C00005C02F3F19F00196A11DB11D3FBFBA2FE6
:1004D000A92F982F8827820F911DA11DB11DBC0146
:1004E000CD0142E0660F771F881F991F4A95D1F70B
:1004F0000895CF93DF93009779F0FC0101900020DD
:10050000E9F73197AF01481B590BBC018AEB91E029
:100510000E948C00EC0102C0C0E0D0E042E050E05C
:1005200065E771E08AEB91E00E948C008C0F9D1FC3
:10053000DF91CF9108950E9434071F920F920FB65A
:100540000F9211242F933F934F935F936F937F9359
:100550008F939F93AF93BF93EF93FF938AEB91E0B9
:100560000E940201FF91EF91BF91AF919F918F91F6
:100570007F916F915F914F913F912F910F900FBE9F
:100580000F901F9018951F920F920FB60F92112483
:100590002F938F939F93EF93FF93E091CA01F09174
:1005A000CB018081E091D001F091D10182FD12C098
:1005B00090818091D3018F5F8F732091D401821736
:1005C00051F0E091D301F0E0E654FE4F958F809317
:1005D000D30101C08081FF91EF919F918F912F9165
:1005E0000F900FBE0F901F9018951F920F920FB68D
:1005F0000F9211242F933F938F939F93AF93BF93A9
:100600008091970190919801A0919901B0919A01E0
:100610003091960123E0230F2D3720F40196A11D80
:10062000B11D05C026E8230F0296A11DB11D209320
:1006300096018093970190939801A0939901B093AC
:100640009A0180919B0190919C01A0919D01B09194
:100650009E010196A11DB11D80939B0190939C0169
:10066000A0939D01B0939E01BF91AF919F918F91F7
:100670003F912F910F900FBE0F901F9018951F92D2
:100680000F920FB60F9211242F933F934F935F93C6
:100690006F937F938F939F93AF93BF93CF93DF938A
:1006A000EF93FF938091A201882311F180919F0124
:1006B00091E0980F90939F0181111AC0C091A10100
:1006C0008091A301C817D8F060E08AE00E94E80199
:1006D00060E0809100010E94E8011092A2018091E7
:1006E00094019091950101969093950180939401C6
:1006F00080919F01883008F110929F011EC0EC2F5D
:10070000F0E0EF5FFE4F90818091A001D1E0D80F23
:10071000D093A00161E070E001C0660F8A95EAF70E
:100720006923809100010E94E801D63008F31092FD
:10073000A001CF5FC093A101DBCFFF91EF91DF91CB
:10074000CF91BF91AF919F918F917F916F915F9169
:100750004F913F912F910F900FBE0F901F901895C2
:10076000CF93DF93CDB7DEB72E970FB6F894DEBFE9
:100770000FBECDBF789484B5826084BD84B581609E
:1007800084BD85B5826085BD85B5816085BD80915C
:100790006E00816080936E001092810080918100D4
:1007A00082608093810080918100816080938100CC
:1007B000809180008160809380008091B10084608E
:1007C0008093B1008091B00081608093B0008091EF
:1007D0007A00846080937A0080917A0082608093AE
:1007E0007A0080917A00816080937A0080917A000B
:1007F000806880937A001092C100E091CA01F09164
:10080000CB0182E08083E091C601F091C7011082A4
:10081000E091C801F091C9018FEC80831092D20160
:10082000E091CE01F091CF0186E08083E091CC0190
:10083000F091CD01808180618083E091CC01F091C5
:10084000CD01808188608083E091CC01F091CD0161
:10085000808180688083E091CC01F091CD0180811E
:100860008F7D80830E9454024B015C0118EEC12EE3
:1008700013E0D12EE12CF12C0E945402DC01CB01BB
:1008800088199909AA09BB09883E9340A105B105B9
:1008900058F021E0C21AD108E108F10878EE870E7D
:1008A00073E0971EA11CB11CC114D104E104F10432
:1008B00019F788E791E00E94790262E083E00E94E4
:1008C000180282E0809300018EE0E5E4F1E0DE01B1
:1008D000119601900D928A95E1F77E01F3E0EF0EFB
:1008E000F11C11E0D7016D917D917D0180E090E0D8
:1008F0000E94A0069B01AC0160E074E284E79BE4E7
:100900000E94F8059B01AC0160E070E080E89FE385
:100910000E94F8059B01AC016FE672E183E099E368
:100920000E94F8050E946A064B015C01B2E08B1A36
:100930009108A108B108EDEF8E16EFEF9E06A10415
:10094000B10408F424C11F5F173061F662307105ED
:100950008105910560F161157105F1E08F07910541
:1009600030F5112321F11092800028E020938100BE
:1009700020918100122B1093810070938900609365
:10098000880080916F00826080936F0061E08091A9
:1009900000010E94180260E08BE00E94180261E0F2
:1009A0008AE00E94180260E08AE00E94E80180E389
:1009B0008093AA018093AB019EE29093AC01809357
:1009C000AD018093AE011DE005E2FAE1FF2EA0E348
:1009D000EA2EB1E3DB2E8AEB91E00E94EC00892B3A
:1009E00009F4D2C08AEB91E00E94CA008093B90159
:1009F0002091B7013091B801F901E155FE4F8A30DD
:100A000041F080832F5F3F4F3093B8012093B701AF
:100A1000BBC010828FEA91E00E9479021092B80167
:100A20001092B7014091AF014093AA013091B001FB
:100A30003093AB012091B1012093AC019091B201B0
:100A40009093AD018091B3018093AE014093A501D5
:100A50003093A6012093A7019093A8018093A90148
:100A600083E00E94BF01019719F4D092A40102C053
:100A7000E092A4018091A2018111FCCF10930901A1
:100A800000930A0144EA51E020E030E086E492E974
:100A9000DA01CD90AD016C2D6827E0E16E9FD001A9
:100AA0001124A6276A2F70E0B62FAA27892F99272D
:100AB0008A2B9B2BDB01E4E0B595A795EA95E1F73E
:100AC0008A279B27F3E0660F771FFA95E1F78627C1
:100AD0009727D901AF5FBE4F6C2D70E0E4E07595AC
:100AE0006795EA95E1F76B597E4FFB0160811A9695
:100AF0006C931A97EC2DEF70F0E0EB59FE4F60818C
:100B00001B966C932E5F3F4F2C30310509F6809574
:100B10009095FC0124E0F695E7952A95E1F7EF70B2
:100B2000FF27EB59FE4F208120931701FC01EF7046
:100B3000FF27EB59FE4F208120931801FC01EF2F76
:100B4000FF27E295EF70EB59FE4F208120931901AA
:100B5000E92FFF27EF70FF27EB59FE4F808180932D
:100B60001A01F092A3011092A1011092A00110921B
:100B70009F0161E08AE00E94E80181E08093A20188
:100B80008091A2018111FCCF0E948C0124CF1630EC
:100B900009F0E7CE0CCFEAEBF1E01382128288EE87
:100BA00093E0A0E0B0E084839583A683B78387E5D4
:100BB00091E09183808385EC90E09587848784EC35
:100BC00090E09787868780EC90E0918B808B81EC1A
:100BD00090E0938B828B82EC90E0958B848B86ECFB
:100BE00090E0978B868B118E128E138E148E089543
:100BF0000E940C060C94F4060E94ED0658F00E9428
:100C0000E60640F029F45F3F29F00C94DD0651110F
:100C10000C9428070C94E3060E94050768F39923B7
:100C2000B1F3552391F3951B550BBB27AA276217E8
:100C30007307840738F09F5F5F4F220F331F441FF5
:100C4000AA1FA9F335D00E2E3AF0E0E832D0915029
:100C50005040E695001CCAF72BD0FE2F29D0660F16
:100C6000771F881FBB1F261737074807AB07B0E859
:100C700009F0BB0B802DBF01FF2793585F4F3AF05F
:100C80009E3F510578F00C94DD060C9428075F3FD9
:100C9000E4F3983ED4F3869577956795B795F795E5
:100CA0009F5FC9F7880F911D9695879597F90895CD
:100CB000E1E0660F771F881FBB1F62177307840769
:100CC000BA0720F0621B730B840BBA0BEE1F88F778
:100CD000E09508950E9471066894B1110C9428075C
:100CE00008950E940D0788F09F5798F0B92F992713
:100CF000B751B0F0E1F0660F771F881F991F1AF007
:100D0000BA95C9F714C0B13091F00E942707B1E03D
:100D100008950C942707672F782F8827B85F39F03C
:100D2000B93FCCF3869577956795B395D9F73EF49F
:100D300090958095709561957F4F8F4F9F4F089547
:100D4000E89409C097FB3EF4909580957095619565
:100D50007F4F8F4F9F4F9923A9F0F92F96E9BB271B
:100D60009395F695879577956795B795F111F8CF97
:100D7000FAF4BB0F11F460FF1BC06F5F7F4F8F4F02
:100D80009F4F16C0882311F096E911C0772321F0F8
:100D90009EE8872F762F05C0662371F096E8862F90
:100DA00070E060E02AF09A95660F771F881FDAF7E7
:100DB000880F9695879597F9089597F99F6780E82A
:100DC00070E060E008959FEF80EC089500240A949D
:100DD0001616170618060906089500240A94121616
:100DE0001306140605060895092E0394000C11F449
:100DF000882352F0BB0F40F4BF2B11F460FF04C0F6
:100E00006F5F7F4F8F4F9F4F089557FD9058440F4E
:100E1000551F59F05F3F71F04795880F97FB991F59
:100E200061F09F3F79F08795089512161306140616
:100E3000551FF2CF4695F1DF08C0161617061806A3
:100E4000991FF1CF86957105610508940895E8947E
:100E5000BB2766277727CB0197F90895EE0FFF1F71
:100E60000590F491E02D099481E090E0F8940C94C1
:060E70003907F894FFCFE2
:100E76000C2A2A2A2A2A2A382C0000000000000000
:100E8600000000000000000000000000000000005C
:100E9600000000000000000000000000000000004C
:100EA600000000000000000000000000000000003C
:100EB60000000000000000010008004000000100E2
:100EC60004050D0000000023018C00BB006A01EC44
:100ED60000CA00DE000D0E131516191A1C2325264E
:100EE600292A2C32340D0A00496E696369616C69DE
:100EF6007A616E646F20612053657269616C2E2E73
:020F06002E00BB
:00000001FF
